:020000040800F2
:10000000C8040020010100082D0E00089D0C000806
:10001000A10C00086B090008291A00080000000064
:10002000000000000000000000000000E9130008CC
:100030006F0900080000000049110008D5140008ED
:100040001B0100081B0100081B0100081B01000820
:100050001B0100081B0100081B0100081B01000810
:100060001B0100081B0100081B0100081B01000800
:100070001B0100081B0100081B0100081B010008F0
:100080001B0100081B0100081B0100081B010008E0
:100090001B0100081B0100081B0100081B010008D0
:1000A0001B0100081B0100081B0100081B010008C0
:1000B00039150008B91500081B0100081B010008CC
:1000C0001B0100081B0100081B0100081B010008A0
:1000D0001B010008ED160008351700081B01000879
:1000E000710900081B0100081B010008DFF80CD093
:1000F00000F024FC0048004789210008C8040020C3
:100100000648804706480047FEE7FEE7FEE7FEE7B1
:10011000FEE7FEE7FEE7FEE7FEE7FEE7D91400088C
:10012000ED00000830B505462A460B4612F8010BD3
:1001300013F8014B08B1A042F8D01CB1002802D03E
:100140006D1CF1E7284630BD10B5044604E00B787D
:1001500000F8013B03B1491C521EF8D2204610BDE5
:10016000034611F8012B00F8012B002AF9D118469B
:10017000704730B505460020034600E05B1C934203
:1001800005D2EC5CC85C201A01D1002CF6D130BD40
:10019000F0B480EA0102D40F4200B2EB410F02D268
:1001A0000246084611464A0042D0C30DDDB2C1F3F3
:1001B000C752AD1A202D35DAC1F3160141F4000201
:1001C00004B15242C5F1200602FA06F12A41104458
:1001D000B3EBD05F23D0C4B1012DA0EBC35009DC39
:1001E000F0BC4FF0004202EAC352DBB200F500005F
:1001F00000F066BA400000F1807000EBC350A0F13F
:10020000807040EAD170490009E0490841EAC071B4
:10021000A0EBC35000F50000400800EBC350F0BC59
:1002200000F045BA6142012202EB4101001BF6E7F2
:10023000F0BC704781F00041AAE780F00040A7E7DA
:100240002DE9FE4F804681EA0300C00F0C46009066
:1002500021F0004123F00045B8EB0200A94105D28E
:100260004046214690461C460B46024623F000407D
:10027000104347D0270DC7F30A00C3F30A51029079
:10028000401A019040286BDAC3F3130040F4801B3E
:100290000098924620B10023D2EB030A63EB0B0BCC
:1002A00001985946C0F14002504600F0CFF9064689
:1002B0000D4650465946019A00F0E7F910EB080048
:1002C0006141002487EA115284EAE7731A4340D05F
:1002D000009A62B3019A012A4FEA075215DC001B0B
:1002E00061EB02014FF0004202EA0752CDE9004201
:1002F000001C41F5801132462B4600F0B8FA03B0DD
:10030000BDE8F08F40462146F9E7001B61EB020192
:10031000001C41F5801300185B412018A2F500175E
:1003200047EB030140EAD570B6196D4111E06D0845
:100330004FEA360645EAC0754FEA0752001B61EBEB
:100340000201001C41F5801149084FEA30000019F4
:10035000514132462B4603B0BDE8F04F00F078BA69
:100360000098012240000023D0EB020263EBE0730F
:10037000009821464FEAE074B8EB000061EB0401FD
:10038000E9E783F000435BE781F0004158E72DE99E
:10039000FE4F81EA030404F0004421F00041009480
:1003A0004FF0000B23F0004350EA01045ED052EA04
:1003B00003045BD0C3F30A54C1F30A552C44A4F2DE
:1003C000F3340194A0FB0254C1F3130141F48011F2
:1003D000C3F3130343F4801301FB024400FB034EF9
:1003E000840A970A44EA815447EA8357A4FB0768C2
:1003F00002958D0A05FB07854FEA932C04FB0C54EC
:100400002705029D4FEA065847EA1637B5EB08055F
:100410006EEB070C870E920E47EA811742EA8312B1
:10042000A7FB0201B6EB0B0164EB00042B0D43EAC2
:100430000C335E1844EB1C50DA465146E7FB0201D0
:10044000C5F313044FEA0B3343EA14534FEA043263
:10045000019C43EA0603A4F10C040294009CCDE93C
:1004600000B400F004FA03B0BDE8F08F00200146AC
:10047000F9E72DE9F04D81EA030404F0004B21F087
:10048000004514464FF0000A23F0004150EA0502EF
:1004900020D054EA01021DD0C5F30A570246C5F325
:1004A0001303C1F31300C1F30A5640F4801543F45B
:1004B0008013A7EB0608101BD64608F2FD3873EB35
:1004C000050002D308F1010801E092185B41B8F180
:1004D000000F03DA00200146BDE8F08D00204FF444
:1004E0008011064684460EE0171B73EB050705D303
:1004F000121B63EB050306434CEA010C49084FEA63
:10050000300092185B4150EA0107EDD152EA030036
:1005100012D082EA040083EA0501084305D0101BCB
:10052000AB4106D20122002306E000224FF0004337
:1005300002E06FF0010253101AEB06004CEB085179
:1005400010EB0A0041EB0B01BDE8F04D00F080B963
:10055000C10F80EAE0700844CA079623002100F02A
:10056000AFB80EB5C10F80EAE0700844CA07002199
:1005700040F233438DE80E000A460B4600F077F94F
:1005800003B000BD70B5C1F30A5201F0004500246C
:10059000C1F3130140F2FF3341F480119A4201DAB2
:1005A000002070BD40F233439A42A2F2334203DC92
:1005B000524200F05AF800E090402C43F1D0404203
:1005C00070BD00F0004230F000400AD0C10D01F5CE
:1005D0006071C0F3160042EA0151C208400711439E
:1005E000704700200146704701F0004330B421F00D
:1005F000004150EA010206D00A0DA2F56072C1F373
:100600001301002A02DC30BC00207047440F44EA8A
:10061000C104C100E01830BC00EBC25000F047B884
:1006200030B50B46014600202022012409E021FAC2
:1006300002F59D4205D303FA02F5491B04FA02F5BF
:100640002844151EA2F10102F1DC30BD202A04DB92
:10065000203A00FA02F1002070479140C2F12003D5
:1006600020FA03F3194390407047202A04DB203A14
:1006700021FA02F00021704721FA02F3D040C2F1C2
:1006800020029140084319467047202A06DBCB1709
:10069000203A41FA02F043EAE07306E041FA02F33D
:1006A000D040C2F12002914008431946704700290A
:1006B000A8BF7047401C490008BF20F001007047E8
:1006C00010B4B0FA80FC00FA0CF050EA010404BF48
:1006D00010BC704749B1CCF1200421FA04F411FA9E
:1006E0000CF118BF012121430843A3EB0C01CB1DE2
:1006F0004FEA00614FEA102042BF002010BC704753
:1007000000EBC35010440029A4BF10BC7047401C2C
:10071000490008BF20F0010010BC704780EA0102C8
:1007200010B502F00043400022D04A001FD0010E55
:1007300001EB1261C0F35600C2F3560240F4000010
:1007400042F40002A0FB022000047F39140400D010
:10075000401C50EA124001D44000491EC2B20C06AF
:1007600004EBD010401C4008802A02D003E0002097
:1007700010BD20F00100002900DA0020184310BD50
:1007800030B480EA010202F0004530F0004221F06E
:10079000004013D090B1C30DD40DC2F31601C0F3C5
:1007A0001600E41A41F4000140F400027D34914245
:1007B00001D3641C00E04900002C02DA30BC0020A8
:1007C00070474FF400000023914201D3891A03437C
:1007D00040084FEA4101F7D151B1914202D14FF0A7
:1007E000004105E002D24FF0010101E06FF001018C
:1007F00003EBC450284430BCFFF759BF420005D07A
:10080000C0F3C7525242914201DC0020704700EB16
:10081000C150704710B541000CD0C0F3C7519629A4
:1008200008DC7E2909DC06DB410204D000F0004030
:1008300040F07E5010BD002010BDC1F19604C4F1FF
:10084000200100FA01F1E040FFF731FFA04010BDA8
:1008500010B5141E73F1000408DA401C41F10001C8
:1008600092185B411A4301D120F0010010BD2DE91F
:10087000F04D92469B4611B1B1FA81F202E0B0FA16
:1008800080F220329046FFF7E1FE04460F4640EA30
:100890000A0041EA0B0153465A46084313D0114659
:1008A00053EA010019D0C8F140025046FFF7DDFEBF
:1008B00005460E46504659464246FFF7C7FE0843D6
:1008C00005D0012004E020463946BDE8F08D002027
:1008D000054346EAE0762C4337430A986305E40A69
:1008E000A0EB08000022FD0A44EA47540A3002D572
:1008F00000200146E9E7010510196941DDE90845D5
:1009000000196941BDE8F04DA2E700F0004220F077
:100910000040C10DC0F3160040F400007F2901DA49
:1009200000207047962903DCC1F19601C84001E020
:1009300096398840002AF4D040427047064C074D53
:1009400006E0E06840F0010394E80700984710349F
:10095000AC42F6D3FFF7CEFBEC2400080C250008D0
:10096000962300221146FFF7ABBE00BFFEE770479B
:1009700010B54FF4806000F015F8012806D1044945
:10098000087004490870800200F006F810BD0000ED
:100990006E0000205F0000200149086070470000E1
:1009A00014040140014600200022074B1B6803EAA3
:1009B0000102054B14331B680B4013B10AB101202F
:1009C00000E000207047000000040140002123499E
:1009D0008279002A3AD00A46126803689A430B4685
:1009E0001A600A1D126803689A430B1D1A60027987
:1009F00011440A6803681A430A60184A08321268E8
:100A000003689A43154B08331A601A1D126803686D
:100A10009A43124B0C331A604279102A0ED11A1FD6
:100A2000126803681A430D4B08331A601A1D1268C6
:100A300003681A43094B0C331A600DE007494279E9
:100A400011440A6803681A430A6005E002791144F8
:100A50000A6803689A430A60704700000004014076
:100A600030B500228B071C0F0F2303FA04F20B4B47
:100A70008C1053F824309343084C8D1044F82530E3
:100A800023468C1053F824308C07240F00FA04F40A
:100A90002343024C8D1044F8253030BD080001403E
:100AA0002DE9F04102460025002600200023002405
:100AB000002791F803C00CF00F0591F803C00CF06B
:100AC000100CBCF1000F03D091F802C04CEA0505F0
:100AD00091F800C0BCF1000F31D0146800202BE069
:100AE0004FF0010C0CFA00F3B1F800C00CEA030659
:100AF0009E4220D183004FF00F0C0CFA03F7BC4349
:100B000005FA03FC4CEA040491F803C0BCF1280F79
:100B100006D14FF0010C0CFA00FCC2F814C00AE038
:100B200091F803C0BCF1480F05D14FF0010C0CFA4D
:100B300000FCC2F810C0401C0828D1D31460B1F8E2
:100B400000C0BCF1FF0F34DD546800202EE000F13E
:100B5000080C4FF0010808FA0CF3B1F800C00CEAD9
:100B600003069E4221D183004FF00F0C0CFA03F7CD
:100B7000BC4305FA03FC4CEA040491F803C0BCF141
:100B8000280F05D100F1080C08FA0CF8C2F81480FF
:100B900091F803C0BCF1480F07D100F1080C4FF0E9
:100BA000010808FA0CF8C2F81080401C0828CED3BF
:100BB0005460BDE8F08141617047016170470000F9
:100BC0002DE9F0419EB007460D460124002630A1D4
:100BD0003148FFF7A7FA002856D000BF20E0611C7B
:100BE000C8B200F05FF80346204600F05BF8181A20
:100BF000401EC1B2601E1CAA1154204600F052F8DB
:100C0000401C254900EB0108611E1CAB5A5CC1EB7E
:100C1000011101ABC8184146FFF796FA601CC4B237
:100C2000072CDCDB0121601E1CAA1154204600F0B9
:100C300039F8401C1849095C601EC0EB001001AA7D
:100C4000115400240CE0C4EB041101AA881800F030
:100C50004BF83146721CD6B247F82100A01CC4B232
:100C6000042CF0DD0026012409E0C4EB041001A9E6
:100C70000A5C3046711CCEB22A54A01CC4B2052CAA
:100C8000F3DD9DF85E00A8551EB0BDE8F0810000C0
:100C9000244750474C4C00001400002000BFFEE7E2
:100CA00000BFFEE70246002115E00E48405C2A28FE
:100CB00007D00C48405C202803DB0A48405C7A28B7
:100CC00001DD002070470748405C2C2801D1501EF0
:100CD000C2B2481CC1B2002AE7D1481EC0B20146C8
:100CE000F0E70000140000202DE9F04F8DB006461B
:100CF0000025A9460027A846AA4600200C903446A5
:100D000016E02078392801DD012000E0002021785C
:100D1000302901DA012100E00021084328B12078C0
:100D20002E2801D17DB200E003E0641C781CC7B21C
:100D3000E7E700BF681C00F0FF09681E45B23446B3
:100D40000AE029460A2001F09FFA2178303901FB98
:100D50000088681E45B2641C002DF2DA012530E0DF
:100D6000641C29460A2001F08FFA8346FFF7F9FB3D
:100D700000222C4BCDE90001FFF77BFBCDE90401FC
:100D80002178A1F13000FFF7ECFBCDE90201DDE9AC
:100D90000423FFF76EFBCDE908015046FFF711FC75
:100DA000CDE90601DDE90823FFF74AFACDE90A019A
:100DB000FFF71AFC8246681C45B209F1010000F0F9
:100DC000FF09B945CCDB642098FBF0F100FB1180F2
:100DD0000290FFF7BDFB51460390FFF7D9F9834618
:100DE000FFF7EFFB0022104BCDE90401FFF741FBB9
:100DF000CDE90801642098FBF0F00590FFF7A8FB0F
:100E00008346FFF7DEFBCDE90601DDE90823FFF7A6
:100E100017FACDE90A01FFF7E7FB0C900C980DB02B
:100E2000BDE8F08F0000F03F00004E40704700002A
:100E30001FB510A103C9CDE90201052202A9302086
:100E400000F0CAF805226946102000F03FF800249F
:100E500006E01DF80400022800D003E0601CC4B2C4
:100E6000052CF6DB00BF052C02D1012004B010BD1B
:100E70000020FBE702020202020000000EB5012181
:100E8000092000F073F928208DF8080001208DF862
:100E90000B0000208DF809008DF80A004FF48060E7
:100EA000009001208DF8060000208DF804000C2031
:100EB0008DF8050002A800F005F90A210120FFF7CE
:100EC000CFFD6846FFF782FD0EBD00002DE9F04121
:100ED00007460C461546002602210B48FFF76BFE1D
:100EE000384600F05DF800BF06E0FF2000F058F83B
:100EF0002070641C701CC6B2AE42F6DB02210248B0
:100F0000FFF75BFEBDE8F081000C014070B50446C0
:100F100001210D48FFF74FFE072000F017F80546A6
:100F20002946272000F028F805F0400050B108229B
:100F300021466120FFF7CAFFFF21E22000F01CF8E4
:100F4000012070BD0020FCE7000C014070B5044694
:100F500002210848FFF72FFE204600F021F8FF206D
:100F600000F01EF8054602210248FFF726FE28463B
:100F700070BD0000000C014070B505460C46022112
:100F80000648FFF718FE284600F00AF8204600F051
:100F900007F802210148FFF710FE70BD000C014068
:100FA00010B5044600BF02210A4800F0C5F9002828
:100FB000F9D02146074800F0CBF900BF01210548D0
:100FC00000F0BAF90028F9D0024800F0BEF9C0B22A
:100FD00010BD0000003001402DE9F04107460C46ED
:100FE0001546002602210B48FFF7E5FD3846FFF7BE
:100FF000D7FF00BF05E02078FFF7D2FF641C701C0C
:10100000C6B2AE42F7DB02210248FFF7D6FDBDE8CB
:10101000F0810000000C014070B50446002601215B
:101020001248FFF7C8FD08222146A020FFF7D4FF91
:1010300001210E48FFF7C1FD0A2000F0D1FE012179
:101040000A48FFF7B8FD0720FFF780FF054605F0C7
:10105000200000B1012629462720FFF78DFFFF2140
:10106000E120FFF789FF304670BD0000000C014011
:1010700010B501211048FFF79EFD05220F492A20D7
:10108000FFF7AAFF01212120FFF776FF012122208F
:10109000FFF772FF08213120FFF76EFF0F21262096
:1010A000FFF76AFF052206493020FFF795FF002170
:1010B0002420FFF761FF10BD000C014061000020FB
:1010C0006600002070B5002100230F22C47804B30D
:1010D000154C246804F4E064C4F5E064210AC1F10D
:1010E0000403CA40447804FA03F18478144021438D
:1010F00009010E4C0678A155047804F01F0501245F
:10110000AC4005786D11AD0005F1E025C5F8004152
:1011100009E0047804F01F050124AC40044D067872
:10112000761145F8264070BD0CED00E000E400E0CB
:1011300080E100E002490143024A1160704700006B
:101140000000FA050CED00E07047000029B1064AE6
:10115000D2690243044BDA6104E0034AD269824354
:10116000014BDA61704700000010024029B1064AC5
:1011700092690243044B9A6104E0034A92698243F4
:10118000014B9A61704700000010024030B5002109
:101190000022002400232D4D6D6805F00C0121B1C3
:1011A000042905D0082923D105E0294D056022E056
:1011B000274D05601FE0254D6D6805F47012234D25
:1011C0006D6805F48034022505EB92421CB9214D6F
:1011D000554305600BE01D4D6D6805F400351DB1EC
:1011E0001C4D5543056002E0194D5543056002E072
:1011F000174D056000BF00BF144D6D6805F0F0018C
:101200000909154D6B5C0568DD4045600F4D6D6843
:1012100005F4E061090A104D6B5C4568DD408560AE
:101220000A4D6D6805F46051C90A0B4D6B5C456849
:10123000DD40C560054D6D6805F44041890B074DE3
:101240006B5CC568B5FBF3F5056130BD001002406D
:1012500000127A0000093D0000000020100000206C
:1012600021B1028842F04002028004E002884FF679
:10127000BF731A400280704700B587B0012141F268
:101280000800FFF773FF10208DF807000220ADF86B
:10129000040003208DF8060018218DF80B10202083
:1012A000ADF8080003218DF80A1004218DF80F1005
:1012B0004020ADF80C0003218DF80E1018218DF898
:1012C00013108020ADF8100003218DF812101021AA
:1012D0008DF817100120ADF8140003218DF81610B9
:1012E00048218DF81B108002ADF8180001A91048A4
:1012F000FFF7D6FB02A90F48FFF7D2FB03A90D4861
:10130000FFF7CEFB04A90B48FFF7CAFB05A9084865
:10131000FFF7C6FB06A90648FFF7C2FB02210448F7
:10132000FFF74BFC01210248FFF745FC07B000BD69
:10133000000C0140000801400246002013890B40C8
:101340000BB1012000E000207047014688897047FA
:101350008181704710B50022028802F441520B8847
:101360004C8823438C882343CC8823430C89234314
:101370004C8923438C892343CC8923431A4302801D
:10138000838B4FF2FF74234083830B8A038210BD4B
:1013900000B585B0FFF770FFFFF770FD1020ADF8C6
:1013A0000C000020ADF80800ADF806000720ADF8ED
:1013B00010000020ADF80400ADF80000ADF80E00FC
:1013C0004FF48270ADF802004FF40070ADF80A00DF
:1013D00069460448FFF7BEFF01210248FFF740FFBE
:1013E00005B000BD00300140704710B500F002F8B4
:1013F00010BD00000CB5002001900090334800683B
:1014000040F480303149086000BF3048006800F483
:10141000003000900198401C0190009818B9019884
:10142000B0F5A06FF1D12948006800F4003010B188
:101430000120009001E0002000900098012843D195
:101440002348006840F01000214908600846006801
:1014500020F0030008600846006840F002000860C1
:101460001A4840681949486008464068486008467C
:10147000406840F4806048600846406820F47C1072
:1014800048600846406840F4E81048600846006834
:1014900040F08070086000BF0C48006800F00070E9
:1014A0000028F9D00948406820F003000749486047
:1014B0000846406840F00200486000BF03484068AA
:1014C00000F00C000828F9D10CBD0000001002400B
:1014D000002002407047000010B51348006840F03B
:1014E00001001149086008464068104908400E494B
:1014F0004860084600680E4908400B4908600846E5
:10150000006820F4802008600846406820F4FE004F
:1015100048604FF41F008860FFF767FF4FF00060DE
:101520000449086010BD0000001002400000FFF8F0
:10153000FFFFF6FE08ED00E010B50121880700F07E
:1015400067F8012812D10A4908700020094908707B
:1015500000214FF0804000F04FF800214FF0804014
:1015600000F070F80121880700F043F810BD00007A
:101570005E0000205D0000201CB51C208DF80400DA
:1015800001208DF8070000208DF8050002208DF85D
:1015900006001D208DF8000001208DF803000020BA
:1015A0008DF8010001208DF8020001A8FFF78AFDE7
:1015B0006846FFF787FD1CBD10B50121094800F002
:1015C00027F801280CD108480078401C064908700B
:1015D0000021044800F036F80121024800F009F823
:1015E00010BD00000004004060000020CA430282D9
:1015F0007047CA430282704721B1028842F001025B
:10160000028004E002884FF6FE731A4002807047A1
:1016100030B50246002000230024158A05EA0103A4
:10162000958905EA010413B10CB1012000E0002006
:1016300030BD1AB183890B43838102E083898B43D8
:101640008381704781847047002202881D4B984235
:101650000ED01D4B98420BD0B0F1804F08D01B4BE1
:10166000984205D01A4B984202D01A4B984204D1A6
:101670004FF68F731A404B881A43174B984207D086
:10168000164B984204D04FF6FF431A40CB881A43BA
:1016900002808B8883850B8803850A4B98420BD088
:1016A000094B984208D00E4B984205D00D4B9842FA
:1016B00002D00D4B984201D10B7A0386012383821D
:1016C00070470000002C014000340140000400403D
:1016D00000080040000C00400010004000140040D2
:1016E00000400140004401400048014010B540F274
:1016F00025510D4800F081F8A0B10B4800F058F9D1
:101700000A490B4A1278885401218807FFF774FFB1
:1017100000214FF08040FFF795FF05480078401CFE
:101720000349087010BD0000003801407800002017
:101730005D00002010B5024800F03AF910BD00002D
:101740000044004021B1828942F40052828104E0C9
:1017500082894DF6FF731A40828170471FB50121BF
:1017600044F20500FFF702FD01214804FFF7EEFCFB
:1017700018208DF80B004FF40070ADF8080003201E
:101780008DF80A0004218DF80F100802ADF80C0046
:1017900003218DF80E1002A91048FFF781F903A963
:1017A0000E48FFF77DF918208DF803000420ADF8EE
:1017B000000003208DF8020004218DF80710082096
:1017C000ADF8040003218DF8061069460348FFF7C1
:1017D00067F901A90148FFF763F91FBD000801403F
:1017E00002460020B1F5007F00D100BF13880B40F6
:1017F0000BB1012000E00020704770B502460024C4
:1018000000230025002040F66A16B14200D100BF37
:10181000C1F3421501F01F03012606FA03F3012D5F
:1018200002D19689334006E0022D02D1168A334058
:1018300001E0968A33400C12012606FA04F4168859
:10184000344013B10CB1012000E0002070BDF0B5B0
:101850000346002400260025002040F66A17B942FE
:1018600000D100BF1846C1F3421401F01F06012742
:1018700007FA06F5012C01D10C3004E0022C01D14D
:10188000103000E014301AB107682F43076002E0FF
:101890000768AF430760F0BD2DE9F04786B0054605
:1018A0000E460024A24600BFA1460027B08900B121
:1018B00000BF2F462C8A4CF6FF700440F08804438A
:1018C0002C82AC894EF6F3100440B088318908436D
:1018D000718908430443AC81AC8A4FF6FF40044051
:1018E000B0890443AC8201A8FFF750FC1F4887422F
:1018F00002D1DDF810A001E0DDF80CA0A88900F409
:10190000004040B10AEBCA0000EB0A103168490000
:10191000B0FBF1F807E00AEBCA0000EB0A103168EF
:101920008900B0FBF1F86420B8FBF0F00401200955
:10193000642101FB1089A88900F4004040B13220E5
:1019400000EBC900B0FBF1F000F00700044308E031
:10195000322000EB09106421B0FBF1F000F00F0021
:1019600004432C8106B0BDE8F08700000038014038
:101970001CB525208DF8000001208DF80300002003
:101980008DF8010003208DF802006846FFF79AFBEE
:1019900026208DF8040001218DF8071000218DF814
:1019A000051004218DF8061001A8FFF78BFB1CBD64
:1019B00001468888C0F308007047C1F3080282809E
:1019C000704700001FB5FFF7D3FFFFF7C7FE4FF4C6
:1019D000165000900020ADF80C000C20ADF80A0065
:1019E0000020ADF80800ADF80600ADF80400694627
:1019F0000B48FFF751FF4FF4165000906946094815
:101A0000FFF74AFF012240F225510648FFF71FFF6A
:101A1000012240F225510248FFF719FF1FBD0000C7
:101A2000003801400044004000BFFEE70FB4054B02
:101A300010B503A9044A029800F0F6F810BC5DF84E
:101A400014FB0000FD1D000870000020410008028A
:101A500018BF04200A0E18BF40F001004FF07F426B
:101A600032EA010108BF40F00200012808BF05204A
:101A7000704700214FF07E50FEF782BE0121FEF735
:101A8000BDBE00210846FEF77BBE6FF05E01080771
:101A9000FEF7B4BE2DE9F04D0D4614464FF07F41E0
:101AA000B1EB440F9EBF4FF0FF312960BDE8F08DD0
:101AB0004FF0004040EA0421C4F3C750783810F0DA
:101AC0001F024A4B4FEA601CC2F120067B44C4F35C
:101AD000C750A0F178004FEA601003EB800053F884
:101AE0002C3008BFD0E901C612D0D0F804C0934012
:101AF0002CFA06F73B4387680CFA02FC27FA06F833
:101B0000C06807FA02F2F0404CEA080C42EA00060C
:101B1000A3FB0132ACFB01C0A6FB016101EB0C068B
:101B20008E4234BF4FF0010C4FF0000CC1186144DD
:101B3000BCF1000F02D0814202D903E0814201D200
:101B4000012000E00020104400F120024FEA92182A
:101B50008006CA0C40EA42304F03C5F80080FEF709
:101B6000F7FC82463846FEF7FBFE6FF01201FEF7E7
:101B700045FE07463046FEF7F3FE6FF02501FEF7FF
:101B80003DFE834639465046FEF702FB5946FEF7B6
:101B9000FFFA00F500666FF30B0651463046FEF77C
:101BA00049FB3946FEF746FB5946FEF746FB10490E
:101BB000FEF7B4FD07460F493046FEF7AFFD394644
:101BC000FEF7E6FA07460C493046FEF7A7FD394610
:101BD000FEF7DEFA14F0004F08BFBDE8F08DC8F143
:101BE000805180F000402960BDE8F08DFC090000C4
:101BF000DB0FC92F22AAFD290000C92F02E008C867
:101C0000121F08C1002AFAD170477047002001E076
:101C100001C1121F002AFBD1704700000149086072
:101C200070470000740000202DE9FF4F8BB09A46EA
:101C30000F460546002606E025280BD052460D9992
:101C400090476D1C761C28780028F5D10FB03046DF
:101C5000BDE8F08F0024A0460122604900E0044363
:101C600015F8013F203B02FA03F00842F7D128782B
:101C70002E2817D115F8010F44F004042A280ED09D
:101C80006FF02F022878A0F1300109290AD808EB5B
:101C9000880102EB410100EB01086D1CF2E757F8E7
:101CA000048B6D1C287869283ED006DC0028CDD036
:101CB00063280BD0642804D136E0732810D075282F
:101CC0004BD052460D999047761C85E017F8040BCF
:101CD0008DF8000000208DF80100E946012003E0A6
:101CE00057F8049B4FF0FF3061074FF0000401D418
:101CF0000AE0641C44450DDA8442FADB19F804104A
:101D00000029F6D106E0641C8442FCDB19F80410BB
:101D10000029F8D1264404E019F8010B52460D9928
:101D20009047641EF8D257E001CF4FF00A0B00280D
:101D300002DA40422D2102E0210504D52B218DF845
:101D40002410012103E0E10705D02021F7E70DF180
:101D5000200908910CE00021F9E701CF4FF00A0BB0
:101D6000F9E75946FEF75CFC01F1300209F8012D54
:101D70000028F6D1ADEB090000F1200B600701D47B
:101D80004FF00108D84502DDA8EB0B0000E0002071
:101D90008046002406E009A85246005D0D99904750
:101DA000641C761C08988442F5DB04E0302052461F
:101DB0000D999047761CB8F10001A8F10108F5DCF7
:101DC00005E019F8010B52460D999047761CBBF1BE
:101DD0000001ABF1010BF4DC6D1C34E709280100B4
:101DE000002107E0002200E0521C41F288339A42B1
:101DF000FADB491C8142F5DB7047000070B50446F0
:101E00000D46E1B20548FFF7D8FD00BF8021034829
:101E1000FFF7E6FC0028F9D0204670BD00440040E2
:101E20002DE9FC4105460024002600200090019089
:101E3000002701212648FFF785FC41E0254800786E
:101E400000283DD000202349087023492348FEF78D
:101E500087F9684600F056F8074621A0DDE9001230
:101E6000FFF7E4FD002600241EE01DF82420304684
:101E7000711CCEB22A543DF82400C0F3072230462C
:101E8000711CCEB22A545DF82400C0F307423046DC
:101E9000711CCEB22A545DF82400020E3046711C2B
:101EA000CEB22A54601CC4B2022CDEDB0B490FA058
:101EB000FFF7BCFD11A10948FEF734F900B100E0BD
:101EC000BCE700BF00210248FFF73CFCBDE8FC81F5
:101ED000003801405E00002078000020140000203F
:101EE000783D25642C793D25640A00000D0A677051
:101EF0007320646174612025730D0A0024475047E4
:101F00004C4C00002DE9F04F8FB082460AA90BA877
:101F1000FEF756FE9DF82A00562803D09DF82B00A8
:101F20004E2803D100200FB0BDE8F08F9DF82800A7
:101F30004E2803D00B9880F000400B909DF82900AC
:101F4000452803D00C9880F000400C900C98FEF7C8
:101F500038FB244A244BCDE90801FEF718FA8046E5
:101F60000022224BFEF785FA06460022204BFEF7A0
:101F70000EFA0446FEF706FBCAF800000B98FEF7BF
:101F800020FB0646174A184BFEF701FA0022174BB2
:101F9000CDE90001FEF76DFA00224FF08043CDE954
:101FA0000201FEF766FA04460E4A124BFEF748F9A4
:101FB000CDE90401FEF718FB069000F06DF90790DB
:101FC00000F01AF88346FEF7FCFA80460022084B20
:101FD000FEF7DDF9CDE90801FEF7D4FACAF80400EE
:101FE0000120A0E7182D4454FB21094000806640E1
:101FF000D0126341FB21E93F2DE9F0410026A0F515
:102000000001B1F1FE4F7DD200F500226FF07E019C
:1020100001EBE251C2F3025477184FF07E52A0EB6D
:10202000C15602EB045557EA040047D02946304612
:10203000FEF7AEF8804629463046FEF7FBF84146EB
:10204000FEF79EFB05460146FEF768FB80464549C4
:10205000FEF764FB4449FEF79BF8064641462846D6
:10206000FEF75CFB3146FEF759FB06463846FEF7A5
:102070006FFA07463D49FEF751FB3D49794451F857
:102080002410FEF785F83146FEF782F80646012156
:102090002846FEF7B3FB3146FEF77AF80546384688
:1020A0003449FEF73BFB3449794451F82410FEF7DC
:1020B0006FF82946BDE8F041FEF76AB84FF07E514F
:1020C0003046FEF7B7F805462C49FEF727FB2C49AA
:1020D000FEF75EF82946FEF721FB2A49FEF758F87D
:1020E0002946FEF71BFB6FF08241FEF751F80446CC
:1020F00029460846FEF712FB2146FEF70FFB014674
:10210000284600E003E0BDE8F041FEF741B84FF09B
:102110007F42B2EB400F03D2BDE8F041FFF7AEBC07
:10212000B0F1FF4F08BFBDE8F081B0F1004F06D914
:102130000120FFF773FDBDE8F041FFF7A2BC30F0CE
:10214000004105D06FF016061721FEF757FB5BE73D
:102150000220FFF763FDFFF78CFC80F00040BDE834
:10216000F081000066F1CC3EAAAA2A3FF4FD0538B2
:102170002C0400000070313FE003000021ED423EDE
:102180000A1180BEC1ABAA3E1FB500200290039089
:102190004FF4E060FEF7CEFF00F038F9FFF712FCD5
:1021A00001212748FFF7CEFAFFF7F2F8FEF740FECD
:1021B00018B124A0FFF73AFC02E028A0FFF736FC94
:1021C000FEF756FF2B4801782520FEF7D5FE1B2190
:1021D0002020FEF7D1FE01212748FEF7EEFC2DE07E
:1021E0002648007850B36846FEF790FE0120244947
:1021F0000870032223A16846FDF7BBFFB8B91A2176
:102200002020FEF7B9FE02A8FFF70AFE04E002A8AC
:10221000FEF702FF00B100E0F9E700BF1B2120201C
:10222000FEF7AAFE01211448FEF7C7FC03E00121D6
:102230001148FEF7C2FC002010490870D0E70000EA
:10224000004400400D0A4E524620636F6E6E657466
:1022500020535543434553210D0A00000D0A4E52A9
:102260004620636F6E6E6574204552524F520D0AC0
:10227000000000006B000020000C01405F00002007
:102280006E000020677073000246012001E0504399
:10229000491E0029FBD170472DE9F8430446024648
:1022A0004C486946B0EB420F09D94FF0E640B0EB1D
:1022B000420F94BF00204FF0FF30009030E0464BBB
:1022C00022F00040834265D944492046FEF726FAB1
:1022D000FEF7A0FA8046FEF718FB00F0030000901E
:1022E0003F494046FEF71AFA05463E494046FEF78A
:1022F00015FA06463C494046FEF710FA07463B49A8
:102300004046FEF70BFA2146FDF797FF3946FDF7E9
:1023100091FF3146FDF78EFF2946FDF78BFF0446FE
:10232000009D002D3ADB21460846FEF7F7F90646E8
:102330002F49FEF7F3F92F49FDF72AFF3146FEF743
:10234000EDF92D49FDF724FF3146FEF7E7F92B495A
:10235000FDF71EFF3146FEF7E1F92949FDF718FFA9
:102360003146FEF7DBF92749FDF712FF3146FEF74C
:10237000D5F92146FEF7D2F92146FDF709FF15F000
:10238000010F08BFBDE8F8830146BDE8F8431E48C9
:10239000FEF7F6B91046FFF77DFBC0E76000B0F12D
:1023A0007F4F09D22046FFF751FB042808BFFFF7F3
:1023B0006CFB2046BDE8F88306D10120FFF72EFC18
:1023C000BDE8F843FFF75DBB2046BDE8F843FFF7E3
:1023D00055BB0000B61F927E490E494683F9223F45
:1023E0001A61342C0020A23300A0FD390000C93F3F
:1023F000BBE9223C0C6D063B8A76CE3CACB5593D20
:1024000035A1083E29AAAA3E000080BF00B585B0CC
:1024100001210320FEF79AFEFFF7AEF80020ADF889
:102420000600ADF8020044F62060ADF80400472035
:10243000ADF800000021ADF81010ADF80C104FF60B
:102440002051ADF80E100020ADF80A0069464FF09B
:102450008040FFF7F9F80DF10A010B48FFF7F4F897
:1024600001218807FFF7C2F801210748FFF7BEF8EE
:10247000012211469007FFF7DCF8012211460248BD
:10248000FFF7D7F805B000BD0004004000000000D1
:102490000030F13D0070643E0000A33E0090CF3E4E
:1024A0000090F83E00400F3F00E0203F0000000099
:1024B00015B78337CDE37B380EE1C53860F6913828
:1024C000AF5F0F38E1BC3E3823F44739000000000D
:1024D0006E83F9A22915444ED15727FCC0DD34F58F
:1024E000999562DB4190433CAB6351FE0C2500089B
:1024F0000000002078000000FC1B00088425000874
:1025000078000020500400000C1C000800000000AF
:102510000102030401020304060708090204060875
:10252000244750474C4C2C323136302E3736363813
:102530002C4E2C31313032372E373632342C452C5C
:102540003039323332312E30302C412C412A363062
:10255000000000000000000000000000000000007B
:102560000000000000000000000000000001020365
:10257000040501020304051E46640000000000007B
:042580000000000057
:04000005080000ED02
:00000001FF
