:020000040800F2
:1000000038060020010100082F0C0008270C00080A
:100010002B0C0008F9090008D115000800000000A9
:10002000000000000000000000000000B511000802
:10003000FD09000800000000150F0008A1120008CB
:100040001B0100081B0100081B0100081B01000820
:100050001B0100081B0100081B0100081B01000810
:100060001B0100081B0100081B0100081B01000800
:100070001B0100081B0100081B0100081B010008F0
:100080001B0100081B0100081B0100081B010008E0
:100090001B0100081B0100081B0100081B010008D0
:1000A0001B0100081B0100081B0100081B010008C0
:1000B000051300081B0100081B0100081B010008B4
:1000C0001B0100081B0100081B0100081B010008A0
:1000D0001B0100081B0100081B0100081B01000890
:1000E000010A00081B0100081B010008DFF80CD002
:1000F00000F070FC00480047C924000838060020C2
:100100000648804706480047FEE7FEE7FEE7FEE7B1
:10011000FEE7FEE7FEE7FEE7FEE7FEE7A5120008C2
:10012000ED000008D2B201E000F8012B491EFBD21D
:1001300070470022F6E710B513460A4604461946F2
:10014000FFF7F0FF204610BD2DE9FE4F804681EA03
:100150000300C00F0C46009021F0004123F0004541
:10016000B8EB0200A94105D24046214690461C4604
:100170000B46024623F00040104347D0270DC7F33B
:100180000A00C3F30A510290401A019040286BDA2A
:10019000C3F3130040F4801B0098924620B1002363
:1001A000D2EB030A63EB0B0B01985946C0F14002F6
:1001B000504600F00EFA06460D4650465946019A42
:1001C00000F026FA10EB08006141002487EA115282
:1001D00084EAE7731A4340D0009A62B3019A012A75
:1001E0004FEA075215DC001B61EB02014FF00042A1
:1001F00002EA0752CDE90042001C41F58011324667
:100200002B4600F04FFB03B0BDE8F08F404621467F
:10021000F9E7001B61EB0201001C41F58013001897
:100220005B412018A2F5001747EB030140EAD570A7
:10023000B6196D4111E06D084FEA360645EAC07502
:100240004FEA0752001B61EB0201001C41F58011CF
:1002500049084FEA30000019514132462B4603B09D
:10026000BDE8F04F00F00FBB0098012240000023D2
:10027000D0EB020263EBE073009821464FEAE07492
:10028000B8EB000061EB0401E9E783F000435BE7B2
:1002900081F0004158E72DE9FE4F81EA030404F0A4
:1002A000004421F0004100944FF0000B23F0004384
:1002B00050EA01045ED052EA03045BD0C3F30A544F
:1002C000C1F30A552C44A4F2F3340194A0FB025468
:1002D000C1F3130141F48011C3F3130343F48013FA
:1002E00001FB024400FB034E840A970A44EA81544E
:1002F00047EA8357A4FB076802958D0A05FB07852B
:100300004FEA932C04FB0C542705029D4FEA065834
:1003100047EA1637B5EB08056EEB070C870E920E11
:1003200047EA811742EA8312A7FB0201B6EB0B01F1
:1003300064EB00042B0D43EA0C335E1844EB1C50B5
:10034000DA465146E7FB0201C5F313044FEA0B33CB
:1003500043EA14534FEA0432019C43EA0603A4F132
:100360000C040294009CCDE900B400F09BFA03B0A9
:10037000BDE8F08F00200146F9E72DE9F04D81EA54
:10038000030404F0004B21F0004514464FF0000A2E
:1003900023F0004150EA050220D054EA01021DD0AA
:1003A000C5F30A570246C5F31303C1F31300C1F3A3
:1003B0000A5640F4801543F48013A7EB0608101B7F
:1003C000D64608F2FD3873EB050002D308F10108A8
:1003D00001E092185B41B8F1000F03DA00200146FA
:1003E000BDE8F08D00204FF48011064684460EE0F3
:1003F000171B73EB050705D3121B63EB05030643BD
:100400004CEA010C49084FEA300092185B4150EA6F
:100410000107EDD152EA030012D082EA040083EA18
:100420000501084305D0101BAB4106D20122002371
:1004300006E000224FF0004302E06FF0010253108B
:100440001AEB06004CEB085110EB0A0041EB0B01D4
:10045000BDE8F04D00F017BAC10F80EAE070084423
:10046000CA079623002100F0EEB80EB540F23341E2
:1004700002910021CDE900110A460B4600F012FA64
:1004800003B000BDC1F30A5210B5C1F3130140F22D
:10049000FF3341F480119A4201DA002010BD40F28E
:1004A00033439A42A2F2334203DC524200F0A0F8F6
:1004B00010BD904010BD00F0004230F000400AD066
:1004C000C10D01F56071C0F3160042EA0151C20886
:1004D00040071143704700200146704730B5041EA5
:1004E00071F1000404DB4FF00044404264EB010171
:1004F000141E73F1000405DB1C464FF0004352420A
:1005000063EB04038B4208BF824230BD01F000431D
:1005100030B421F0004150EA010206D00A0DA2F5E4
:100520006072C1F31301002A02DC30BC0020704766
:10053000440F44EAC104C100E01830BC00EBC250D3
:1005400000F078B830B50B46014600202022012487
:1005500009E021FA02F59D4205D303FA02F5491B91
:1005600004FA02F52844151EA2F10102F1DC30BDA7
:100570002DE9F05F0546002092469B4688460646D8
:10058000814640241BE0284641464746224600F06B
:100590002FF853465A46C01A914110D311461846B7
:1005A000224600F016F82D1A67EB01084F46224646
:1005B0000120002100F00DF817EB00094E41201E2C
:1005C000A4F10104DFDC484631462A464346BDE833
:1005D000F09F202A04DB203A00FA02F10020704745
:1005E0009140C2F1200320FA03F319439040704771
:1005F000202A04DB203A21FA02F00021704721FA78
:1006000002F3D040C2F120029140084319467047DE
:10061000202A06DBCB17203A41FA02F043EAE073C6
:1006200006E041FA02F3D040C2F1200291400843B3
:10063000194670470029A8BF7047401C490008BFF1
:1006400020F00100704710B4B0FA80FC00FA0CF002
:1006500050EA010404BF10BC704749B1CCF120043A
:1006600021FA04F411FA0CF118BF012121430843C7
:10067000A3EB0C01CB1D4FEA00614FEA102042BFF3
:10068000002010BC704700EBC35010440029A4BFE9
:1006900010BC7047401C490008BF20F0010010BC8E
:1006A0007047F0B480EA0102D40F4200B2EB410F70
:1006B00002D20246084611464A0042D0C30DDDB2BE
:1006C000C1F3C752AD1A202D35DAC1F3160141F43A
:1006D000000204B15242C5F1200602FA06F12A4195
:1006E0001044B3EBD05F23D0C4B1012DA0EBC350B5
:1006F00009DCF0BC4FF0004202EAC352DBB200F565
:100700000000FFF7A0BF400000F1807000EBC35075
:10071000A0F1807040EAD170490009E0490841EA3F
:10072000C071A0EBC35000F50000400800EBC350BF
:10073000F0BCFFF77FBF6142012202EB4101001BC9
:10074000F6E7F0BC704781F00041AAE780F0004076
:10075000A7E780EA010210B502F00043400022D072
:100760004A001FD0010E01EB1261C0F35600C2F324
:10077000560240F4000042F40002A0FB02200004F4
:100780007F39140400D0401C50EA124001D44000CC
:10079000491EC2B20C0604EBD010401C4008802A4F
:1007A00002D003E0002010BD20F00100002900DA93
:1007B0000020184310BD30B480EA010202F0004569
:1007C00030F0004221F0004013D090B1C30DD40DA1
:1007D000C2F31601C0F31600E41A41F4000140F41C
:1007E00000027D34914201D3641C00E04900002CDA
:1007F00002DA30BC002070474FF400000023914221
:1008000001D3891A034340084FEA4101F7D151B19E
:10081000914202D14FF0004105E002D24FF00101B8
:1008200001E06FF0010103EBC450284430BCFFF736
:1008300001BF420005D0C0F3C7525242914201DCD1
:100840000020704700EBC150704710B541000CD03C
:10085000C0F3C751962908DC7E2909DC06DB41027A
:1008600004D000F0004040F07E5010BD002010BDCC
:10087000C1F19604C4F1200100FA01F1E040FFF754
:10088000D9FEA04010BD10B5141E73F1000408DAA3
:10089000401C41F1000192185B411A4301D120F044
:1008A000010010BD2DE9F04D92469B4611B1B1FA01
:1008B00081F202E0B0FA80F220329046FFF789FE22
:1008C00004460F4640EA0A0041EA0B0153465A46E5
:1008D000084313D0114653EA010019D0C8F1400271
:1008E0005046FFF785FE05460E465046594642469D
:1008F000FFF76FFE084305D0012004E0204639468B
:10090000BDE8F08D0020054346EAE0762C433743EE
:100910000A986305E40AA0EB08000022FD0A44EAF5
:1009200047540A3002D500200146E9E701051019B5
:100930006941DDE9084500196941BDE8F04DA2E7CC
:1009400000F0004220F00040C10DC0F3160040F45A
:1009500000007F2901DA00207047962903DCC1F1ED
:100960009601C84001E096398840002AF4D0404200
:100970007047C1F30A52C1F3130140F2FF3341F44F
:1009800080119A4202DA00200146704740F2334358
:100990009A42A2F2334202DC5242FFF729BEFFF72D
:1009A00018BE000030B5041E71F1000404DB4FF0E6
:1009B0000044404264EB0101141E73F1000405DBA6
:1009C0001C464FF00043524263EB0403994208BFB8
:1009D000904230BD064C074D06E0E06840F0010350
:1009E00094E8070098471034AC42F6D3FFF782FB37
:1009F000002900082029000800BFFEE7704700001A
:100A000010B54FF0804000884FF6FE7108404FF05F
:100A100080410880012003490870800200F004F83A
:100A200010BD00002400002001490860704700004C
:100A300014040140002123498279002A3AD00A4651
:100A4000126803689A430B461A600A1D126803680D
:100A50009A430B1D1A60027911440A6803681A430D
:100A60000A60184A0832126803689A43154B083323
:100A70001A601A1D126803689A43124B0C331A60ED
:100A80004279102A0ED11A1F126803681A430D4BBF
:100A900008331A601A1D126803681A43094B0C3395
:100AA0001A600DE00749427911440A6803681A4345
:100AB0000A6005E0027911440A6803689A430A60F3
:100AC000704700000004014030B500228B071C0F66
:100AD0000F2303FA04F20B4B8C1053F8243093438A
:100AE000084C8D1044F8253023468C1053F82430E0
:100AF0008C07240F00FA04F42343024C8D1044F8B1
:100B0000253030BD080001402DE9F04102460025A6
:100B10000026002000230024002791F803C00CF0D9
:100B20000F0591F803C00CF0100CBCF1000F03D0BE
:100B300091F802C04CEA050591F800C0BCF1000F25
:100B400031D0146800202BE04FF0010C0CFA00F3B8
:100B5000B1F800C00CEA03069E4220D183004FF09A
:100B60000F0C0CFA03F7BC4305FA03FC4CEA04042F
:100B700091F803C0BCF1280F06D14FF0010C0CFA1C
:100B800000FCC2F814C00AE091F803C0BCF1480FA1
:100B900005D14FF0010C0CFA00FCC2F810C0401C4B
:100BA0000828D1D31460B1F800C0BCF1FF0F34DDC8
:100BB000546800202EE000F1080C4FF0010808FAFC
:100BC0000CF3B1F800C00CEA03069E4221D1830069
:100BD0004FF00F0C0CFA03F7BC4305FA03FC4CEA88
:100BE000040491F803C0BCF1280F05D100F1080CF2
:100BF00008FA0CF8C2F8148091F803C0BCF1480F51
:100C000007D100F1080C4FF0010808FA0CF8C2F8FF
:100C10001080401C0828CED35460BDE8F0814161AB
:100C200070470161704700BFFEE700BFFEE77047F5
:100C30001FB510A103C9CDE90201052202A9302088
:100C400000F0DCF805226946102000F03FF800248F
:100C500006E01DF80400022800D003E0601CC4B2C6
:100C6000052CF6DB00BF052C02D1012004B010BD1D
:100C70000020FBE702020202020000000EB5012183
:100C8000092000F059F928208DF8080001208DF87E
:100C90000B0000208DF8090003208DF80A004FF4A6
:100CA0008060009001208DF8060000208DF804007F
:100CB0000C208DF8050002A800F0EAF80A210120B6
:100CC000FFF702FF6846FFF7B5FE0EBD2DE9F041C4
:100CD00007460C461546002602210B48FFF79FFFEA
:100CE000384600F06FF800BF06E0FF2000F06AF819
:100CF0002070641C701CC6B2AE42F6DB02210248B2
:100D0000FFF78FFFBDE8F081000C014070B505468C
:100D100001211548FFF785FF00BF1448007800281F
:100D2000FBD000201149087001210F48FFF777FF21
:100D3000072000F01DF804462146272000F02EF879
:100D4000052001F02BFA04F0400050B1082229469A
:100D50006120FFF7BBFFFF21E22000F01FF8012018
:100D600070BD0020FCE70000000C014024000020C2
:100D700070B5044602210848FFF751FF204600F0F5
:100D800021F8FF2000F01EF8054602210248FFF777
:100D900048FF284670BD0000000C014070B50546B4
:100DA0000C4602210648FFF73AFF284600F00AF8F1
:100DB000204600F007F802210148FFF732FF70BD1E
:100DC000000C014010B5044600BF02210A4800F0A3
:100DD00099F90028F9D02146074800F09FF900BF93
:100DE0000121054800F08EF90028F9D0024800F0F2
:100DF00092F9C0B210BD0000003001402DE9F04171
:100E000007460C461546002602210B48FFF707FF50
:100E10003846FFF7D7FF00BF05E02078FFF7D2FF85
:100E2000641C701CC6B2AE42F7DB02210248FFF719
:100E3000F8FEBDE8F0810000000C014010B5012172
:100E40001048FFF7ECFE05220F492A20FFF7D6FFD6
:100E500001212120FFF7A2FF01212220FFF79EFFA1
:100E600008213120FFF79AFF0F212620FFF796FF78
:100E7000052206493020FFF7C1FF00212420FFF79B
:100E80008DFF10BD000C01401A0000201F00002043
:100E900070B5002100230F22C47804B3154C2468D8
:100EA00004F4E064C4F5E064210AC1F10403CA401B
:100EB000447804FA03F184781440214309010E4C6C
:100EC0000678A155047804F01F050124AC4005788C
:100ED0006D11AD0005F1E025C5F8004109E0047889
:100EE00004F01F050124AC40044D0678761145F846
:100EF000264070BD0CED00E000E400E080E100E081
:100F000002490143024A1160704700000000FA05DF
:100F10000CED00E07047000029B1064AD269024397
:100F2000044BDA6104E0034AD2698243014BDA617F
:100F3000704700000010024029B1064A926902433E
:100F4000044B9A6104E0034A92698243014B9A611F
:100F5000704700000010024030B50021002200243C
:100F600000232D4D6D6805F00C0121B1042905D039
:100F7000082923D105E0294D056022E0274D0560B1
:100F80001FE0254D6D6805F47012234D6D6805F462
:100F90008034022505EB92421CB9214D5543056072
:100FA0000BE01D4D6D6805F400351DB11C4D55431A
:100FB000056002E0194D5543056002E0174D0560DC
:100FC00000BF00BF144D6D6805F0F0010909154D13
:100FD0006B5C0568DD4045600F4D6D6805F4E061B0
:100FE000090A104D6B5C4568DD4085600A4D6D68EF
:100FF00005F46051C90A0B4D6B5C4568DD40C56066
:10100000054D6D6805F44041890B074D6B5CC56863
:10101000B5FBF3F5056130BD0010024000127A0007
:1010200000093D00000000201000002021B10288CE
:1010300042F04002028004E002884FF6BF731A407B
:101040000280704700B587B0012141F20800FFF728
:1010500073FF10208DF807000220ADF80400032074
:101060008DF8060018218DF80B102020ADF808002F
:1010700003218DF80A1004218DF80F104020ADF8DF
:101080000C0003218DF80E1018218DF8131080200C
:10109000ADF8100003218DF8121010218DF81710F3
:1010A0000120ADF8140003218DF8161048218DF8A9
:1010B0001B108002ADF8180001A91048FFF724FDAD
:1010C00002A90F48FFF720FD03A90D48FFF71CFDFB
:1010D00004A90B48FFF718FD05A90848FFF714FD00
:1010E00006A90648FFF710FD02210448FFF799FD05
:1010F00001210248FFF793FD07B000BD000C01403D
:10110000000801400246002013890B400BB101206A
:1011100000E0002070470146888970478181704750
:1011200010B50022028802F441520B884C882343F8
:101130008C882343CC8823430C8923434C89234345
:101140008C892343CC8923431A430280838B4FF23B
:10115000FF74234083830B8A038210BD00B585B0E2
:10116000FFF770FFFFF78AFD1020ADF80C0000209C
:10117000ADF80800ADF806000720ADF8100000201B
:10118000ADF80400ADF80000ADF80E004FF4827029
:10119000ADF802004FF40070ADF80A00694604484B
:1011A000FFF7BEFF01210248FFF740FF05B000BD79
:1011B00000300140704710B500F002F810BD00008B
:1011C0000CB50020019000903348006840F4803056
:1011D0003149086000BF3048006800F400300090DA
:1011E0000198401C0190009818B90198B0F5A06FC3
:1011F000F1D12948006800F4003010B101200090BE
:1012000001E0002000900098012843D123480068A5
:1012100040F01000214908600846006820F00300F3
:1012200008600846006840F0020008601A484068FC
:10123000194948600846406848600846406840F4DC
:10124000806048600846406820F47C10486008468A
:10125000406840F4E81048600846006840F080703C
:10126000086000BF0C48006800F000700028F9D04A
:101270000948406820F00300074948600846406874
:1012800040F00200486000BF0348406800F00C00D6
:101290000828F9D10CBD00000010024000200240D7
:1012A0007047000010B51348006840F00100114974
:1012B000086008464068104908400E4948600846E2
:1012C00000680E4908400B4908600846006820F491
:1012D000802008600846406820F4FE0048604FF413
:1012E0001F008860FFF767FF4FF000600449086047
:1012F00010BD0000001002400000FFF8FFFFF6FEE6
:1013000008ED00E010B50121880700F028F8012859
:1013100008D105480068401C03490860012188077E
:1013200000F017F810BD00001400002008B51C20C4
:101330008DF8000001208DF8030000208DF80100D9
:101340008DF802006846FFF7A3FD08BDCA4302827C
:101350007047CA43028270470146888C704730B597
:101360000246002000230024158A05EA010395891E
:1013700005EA010413B10CB1012000E0002030BDEA
:101380001AB183890B43838102E083898B43838174
:101390007047818470470000002202881D4B9842EC
:1013A0000ED01D4B98420BD0B0F1804F08D01B4B94
:1013B000984205D01A4B984202D01A4B984204D159
:1013C0004FF68F731A404B881A43174B984207D039
:1013D000164B984204D04FF6FF431A40CB881A436D
:1013E00002808B8883850B8803850A4B98420BD03B
:1013F000094B984208D00E4B984205D00D4B9842AD
:1014000002D00D4B984201D10B7A038601238382CF
:1014100070470000002C01400034014000040040EF
:1014200000080040000C0040001000400014004084
:1014300000400140004401400048014021B1828940
:1014400042F40052828104E082894DF6FF731A4013
:10145000828170471CB501214804FFF75DFD012121
:101460000520FFF769FD18208DF803000420ADF872
:10147000000003208DF8020004218DF807100820D9
:10148000ADF8040003218DF8061069460348FFF704
:101490003BFB01A90148FFF737FB1CBD00080140D9
:1014A00002460020B1F5007F00D100BF13880B4039
:1014B0000BB1012000E00020704700002DE9F0474B
:1014C00086B005460E460024A24600BFA14600276E
:1014D000B08900B100BF2F462C8A4CF6FF70044043
:1014E000F08804432C82AC894EF6F3100440B08897
:1014F00031890843718908430443AC81AC8A4FF6B3
:10150000FF400440B0890443AC8201A8FFF724FDEA
:101510001F48874202D1DDF810A001E0DDF80CA0E1
:10152000A88900F4004040B10AEBCA0000EB0A10A1
:1015300031684900B0FBF1F807E00AEBCA0000EBA4
:101540000A1031688900B0FBF1F86420B8FBF0F0B4
:1015500004012009642101FB1089A88900F40040DE
:1015600040B1322000EBC900B0FBF1F000F0070001
:10157000044308E0322000EB09106421B0FBF1F0D5
:1015800000F00F0004432C8106B0BDE8F087000096
:1015900000380140C1F30802828070471FB5FFF791
:1015A00059FF4FF4165000900020ADF80C000820B1
:1015B000ADF80A000020ADF80800ADF80600ADF85F
:1015C000040069460148FFF779FF1FBD0044004051
:1015D00000BFFEE70FB4054B10B503A9044A0298FB
:1015E00000F0F0F810BC5DF814FB0000292300089F
:1015F000280000204100080218BF04200A0E18BF6E
:1016000040F001004FF07F4232EA010108BF40F094
:101610000200012808BF052070470121FFF709B922
:1016200061214FF0E040FFF704B96FF05E01080759
:10163000FFF7FFB802E008C8121F08C1002AFAD15C
:1016400070477047002001E001C1121F002AFBD142
:101650007047000001490860704700003400002016
:101660002DE9FF5FDDE90220010DDDF838B002430E
:1016700018D044F61050A1F2FF3141430D140F98D9
:10168000012820D0A5EB0B00401C5FEA000A4FF0B8
:101690000004474EDFF81C91A046504616D5CAF10B
:1016A000000728E00F98012443A2012808D0002158
:1016B00000980F9BC0E90021C0E90243BDE8FF9FED
:1016C0006FEA0B01F4E7CBF10000DEE7074612E01A
:1016D000F80707D02246334640464946FEF7DBFD71
:1016E000804689462246334610461946FEF7D3FD0A
:1016F00004460E467F10002FEAD1DDE90201BAF15F
:10170000000F42464B4602DAFEF7C5FD01E0FEF748
:1017100034FE04460E460022284BFFF743F903D857
:101720004FF0FF30014607E00022254B20463146AE
:10173000FEF70AFDFFF71DF9102409E0002C0ADB73
:101740000A220023FEF714FF019B30321A55641E53
:1017500050EA0102F2D1641C019AC4F1110314444D
:101760000F9A012A03D0012208430DD10AE0084351
:1017700004D000204FF0110B0F9080E7A3EB0B0576
:101780006D1E0DE05B4504DD4FF0000205F1010523
:1017900004E003DA4FF00002A5F10105002AECD0C5
:1017A00000980F99C0E90231C0E9004586E70000C2
:1017B000000024400000F03F300000000000F04333
:1017C0000000E03F2DE9FF4F95B09B468946064655
:1017D00000250FE2252877D100242746F84A012169
:1017E000059400E0044316F8013F203B01FA03F0A2
:1017F0001042F7D130782A2811D06FF02F033078BB
:10180000A0F13002092A16D8059A44F0020402EB2E
:10181000820203EB42021044761C0590EFE759F870
:10182000042B0592002A03DA504244F40054059038
:1018300044F00204761C30782E2816D116F8010FD9
:1018400044F004042A280DD06FF02F023078A0F164
:101850003003092B09D807EB870302EB4303C718B2
:10186000761CF3E759F8047B761C30786C280FD08F
:1018700006DC4C2817D068280DD06A2814D104E063
:10188000742810D07A280FD10DE044F400140AE037
:1018900044F4801401E044F440147278824202D18E
:1018A00004F58014761C761C307866280BD013DC87
:1018B000582877D009DC002875D04528F6D046286E
:1018C000F4D047281AD19DE118E0632835D0642868
:1018D00079D0652812D195E1702873D008DC67288B
:1018E000F1D069286FD06E280DD06F2806D1B5E0F1
:1018F00073282CD0752875D0782874D05A4617993B
:1019000090476D1C75E1C4F30250022809D00328EA
:101910000DD0D9F8001004280DD00D6009F104098C
:1019200067E1D9F80010EA17C1E90052F6E7D9F8E3
:1019300000100D80F2E70D70F0E719F8041B8DF828
:10194000001000208DF80100EA46012003E059F85C
:1019500004AB4FF0FF3061074FF0000102D40DE0FF
:1019600008F101018846B9420FDA8045F8DB1AF820
:1019700008100029F4D108E008F1010188468142ED
:10198000FADB1AF808100029F6D105985B46A0EB9F
:10199000080721463846179A00F094FA284400EBCD
:1019A000080507E04DE029E10DE01AF8010B5A4661
:1019B00017999047B8F10108F7D25B46214638469F
:1019C000179A13E142E00A220092C4F302524FF048
:1019D000000A022A08D059F804CB032A4FEAEC7116
:1019E0000AD00DE029E02AE009F1070121F0070201
:1019F000F2E802C1914609E00FFA8CFC4FEAEC7163
:101A0000042A03D14FFA8CFC4FEAEC71002907DA63
:101A10000A460021DCF1000C61EB02012D2202E0FC
:101A2000220504D52B228DF80420012203E0E207D1
:101A300001D02022F7E7904659E00A2102E0102267
:101A40000DE010214FF0000A00910BE010224FF042
:101A5000000A44F004040827009203E008224FF033
:101A6000000A0092C4F30252022A05D059F804CBAE
:101A70000021032A08D009E009F1070121F007023B
:101A8000F2E802C1914605E01FFA8CFC042A01D15C
:101A90000CF0FF0C4FF00008220728D5702806D064
:101AA000009B83F0100353EA0A0305D00EE04022A6
:101AB0008DF80420012208E05CEA010206D0302201
:101AC0008DF804208DF8050002229046009B83F0DB
:101AD000080353EA0A030AD15CEA010201D1620752
:101AE00005D530228DF804204FF001087F1E5828BC
:101AF00004D034A003900EA802900DE036A0F9E7C0
:101B000053466046009AFEF733FD84460398825C94
:101B10000298401E029002705CEA0100F0D1029827
:101B200006A9081A00F1200A600702D524F48034BF
:101B300000E00127574502DDA7EB0A0000E0002086
:101B400000EB0A01009005984144401A0590E0031B
:101B500006D45B462146179A059800F0B3F9054470
:101B6000002706E001A85A46C05D179990476D1CF2
:101B70007F1C4745F6DBE0030CD55B462146179AF0
:101B8000059800F09FF9054404E030205A46179963
:101B900090476D1C0099481E00900029F5DC08E074
:101BA000029802995A460078491C02911799904769
:101BB0006D1CBAF10001AAF1010AF1DC65E1000037
:101BC0000928010030313233343536373839616213
:101BD00063646566000000003031323334353637D7
:101BE00038394142434445460000000000F058F9AE
:101BF0000544761C307800287FF4ECAD19B02846F7
:101C0000BDE8F08F620700D4062709F1070222F031
:101C1000070CFCE80223E14603F000485FEA080CE9
:101C200002D00FF2702C0DE05FEA045C02D50FF2D7
:101C3000682C07E05FEAC47C02D00FF2602C01E060
:101C4000AFF2700C4FF0FF3823F00043CDF850C0D6
:101C500065280CD006DC452809D046281DD0472829
:101C60003DD13DE0662818D067287ED138E00021BC
:101C7000112F01DB112000E0781CCDE9000106A93D
:101C80000EA8FFF7EDFCDDE90F010E9A039100218C
:101C9000009207F1010A04914DE04FF000400097D7
:101CA000CDE9011006A90EA8FFF7DAFCDDE90F0265
:101CB00003920E9B11990022DDF80CA00093049270
:101CC00011B9791C00EB010AB7EB0A0004D4C0F18A
:101CD000FF3007F1010A0490AAEB0700019044E0ED
:101CE000012F00DA01270021112F01DD112000E072
:101CF0003846CDE9000106A90EA8FFF7B1FCDDE9E1
:101D00000F010E9A0391002104910092BA46210717
:101D10000CD40399514500DA8A46BAF1010F05DD6A
:101D2000009AAAF10101515C302908D0B84202DAC8
:101D300010F1040F06DA0121CDE9011015E0AAF136
:101D40000101E9E7002805DC049901440491AAEBAC
:101D5000000102E0411C514500DD8A460499401A09
:101D6000401C01904FF000400290200704D40198DD
:101D7000504501DBCDF8048000208DF84F0002981B
:101D80000DF14F07B0F1004F25D02B200E90029897
:101D90004FF0020800280CDA404202902D200E90ED
:101DA00007E00A210298FEF7CDFB3031029007F8D8
:101DB000011DB8F10001A8F10108F2DC0298002829
:101DC000EFD1791E0E980870307800F0200040F0B6
:101DD000450007F8020D12A8C01B00F1070814986F
:101DE000007800B1012000EB0A01019801EBE071DD
:101DF00005984144401A401E0590E00306D45B4616
:101E00002146179A059800F05DF80544149800786B
:101E100018B15A46179990476D1CE00324D55B46CC
:101E20002146179A059800F04DF805441CE00498E7
:101E3000002807DBDDE90301884203DD0098405CF0
:101E4000179901E0179930205A469047049805F1F8
:101E50000105401C04900198401E019004D12E20E1
:101E60005A46179990476D1CBAF10001AAF1010A70
:101E7000DDDC05E017F8010B5A46179990476D1CF9
:101E8000B8F10001A8F10108F4DC5B462146179A7D
:101E90000598ABE62D0000002B000000200000009C
:101EA0002DE9F041044600251E461746880404D457
:101EB00005E039462020B0476D1C641EF9D5284640
:101EC000BDE8F0812DE9F041044600251E4690460C
:101ED000C80301D5302700E02027880404D505E099
:101EE00041463846B0476D1C641EF9D52846BDE80A
:101EF000F08100002DE9F041054604464FF00E4008
:101F000000EB4400B0F1145F76D24FF0FE40B0EB2E
:101F1000440F24BF002637460CD214F0004F19BFDF
:101F2000454F464E464F474E21464748FEF743FC35
:101F3000054604464FF0FC40B0EB440F2CD2434919
:101F4000DFF80C8114F0004F0AD04FF03F443846C0
:101F5000FEF7F9FB074641463046FEF7F4FB09E081
:101F60004FF07C543846FEF79CFB0746414630460E
:101F7000FEF797FB064621462846FEF7EAFB4FF0A0
:101F80007E51FEF78EFB804621462846FEF7DBFB9E
:101F90004146FEF710FC054629460846FEF7D9FBE8
:101FA00080462C49FEF7D5FB2B49FEF77AFB4146CC
:101FB000FEF7CFFB2949FEF774FB4146FEF7C9FB4C
:101FC0002749FEF76EFB4146FEF7C3FB2549FEF7A6
:101FD00068FB044641462846FEF7BBFB2146FEF758
:101FE000B8FB3146FEF75DFB2946FEF75AFB394642
:101FF000BDE8F041FEF755BB4FF0E440B0EB440FB5
:1020000009D92846FFF7F6FA042808BFFFF70DFBA9
:102010002846BDE8F0814FF07F40B0EB440F04D27A
:102020002046BDE8F041FFF7F8BA14F0004F14BFA6
:102030000D480E48BDE8F0810000C9BF22AAFDB9D5
:102040000000C93F22AAFD39000080BF0060ED3EBC
:10205000C30ACE372DAD65BD8FB8D53D0FB511BEC6
:1020600061C84C3EA8AAAABEDB0FC9BFDB0FC93F9F
:102070002DE9F04F8BB00C4690461D46002006908F
:10208000079008900990D4E904633246D4E900919E
:102090004846FEF759F8CDE90201D4E90863324613
:1020A000FEF752F80022384BCDE90401FEF765F93E
:1020B000CDE90601D4E906934A46D4E902613046E7
:1020C000FEF742F8CDE90201D4E90A633246FEF791
:1020D0003BF800222C4BCDE90401FEF74EF9CDE987
:1020E00008012A4A2A4BDDE906914846FEF745F9E0
:1020F00006460022274BFEF7CEF8C8E90001DDE9CD
:1021000008211046FEF702FA009000F055F8019001
:10211000FFF7F0FE8146FEF7CEF91C4A1E4BCDE9D3
:102120000201FEF7B2F8064600224FF08043FEF7A8
:10213000B2F88246154A164BFEF71FF90022154BDE
:10214000CDE90401FEF7A7F8C8E902010022134611
:10215000DDE906613046FEF7C1F902D2572028704A
:1021600001E04520287000221346DDE90861304671
:10217000FEF7B4F902D25320687001E04E20687077
:102180000BB0BDE8F08F000000000840182D44544B
:10219000FB21094000806640FB21E93F002107E068
:1021A000002200E0521C41F288339A42FADB491CBB
:1021B0008142F5DB704700002DE9F04104464FF005
:1021C00019404E49002500EB440088424AD84C494A
:1021D0002046FEF7BEFAFEF738FB8046FEF7B0FB5E
:1021E000064648494046FEF7B4FA07464649404687
:1021F000FEF7AFFA2146FEF7A9FA3946FEF7A3FA31
:1022000004464249FEF7A5FA4149FEF74AFA21463B
:10221000FEF79FFA6FF04141FEF743FA2146FEF7C1
:1022200098FA3C49FEF73DFA2146FEF792FA01463C
:10223000394806F00304784450F82400FEF789FA80
:102240003649794451F82410FEF72BFA3449794481
:1022500051F82410FEF725FAB11085BBBDE8F04116
:10226000FEF7E7BA4FF0FF4131EA040018D04FF013
:10227000CE41B1EB440F84BF4FF07E50BDE8F081FA
:102280002849B1EB440F28BF0125A0D20220FFF757
:10229000E1F914F0004F0ED0BDE8F041FFF7C5B9E9
:1022A000204614F5000F04BF0020BDE8F081BDE812
:1022B000F041FFF7B2B9BDE8F041FFF7B1B9FEF761
:1022C000B8FA04000BD0B4F1FF4F0FD0FFF792F92A
:1022D000042808BFFFF7A9F92046BDE8F0810220D5
:1022E000FFF7B8F9BDE8F041FFF79FB90220FFF70B
:1022F000B1F9BDE8F041FFF793B900000000501EAE
:102300003BAAB840F4FD05370070313E12BB2A3DB0
:1023100012BB2A3EFFFF7F3FB60600009A06000070
:102320007E0600000000A08570B504460D46E1B2AF
:102330000548FFF72FF900BF80210348FFF7B0F8E9
:102340000028F9D0204670BD004400402DE9F04F30
:102350008BB08246002400250026564903C9CDE9EA
:102360000901002007900890182101A8FDF7E1FE5F
:1023700000BF99E01A212020FEF710FD4E48015DB4
:102380002520FEF70BFD1FE0082209A9A020FEF77B
:1023900035FD01214948FEF744FC052000F064FAB0
:1023A00001214648FEF73BFC0720FEF7E1FC814691
:1023B00049462720FEF7F2FCFF21E120FEF7EEFC64
:1023C00009F0200000B100E0DEE700BF00203C493A
:1023D00008701B212020FEF7E1FC01213748FEF7A1
:1023E00020FC07A8FEF792FC0025002658E001A873
:1023F00000EBC40050F825203046711CCEB207A96E
:10240000085C104401A901EBC40141F8250001A8B2
:1024100000EBC40050F825203046711CCEB207A94D
:10242000085C02EB002001A901EBC40141F8250082
:1024300001A800EBC40050F825203046711CCEB234
:1024400007A9085C02EB004001A901EBC40141F8B7
:10245000250001A800EBC40050F825203046711C6F
:10246000CEB207A9085C02EB006001A901EBC40130
:1024700041F8250001A901EBC40151F82500FDF741
:10248000EBFF8346FEF717F8074600220D4BFDF7DA
:1024900074FF0AEB041202EBC50203C2681CC5B24A
:1024A000022DA4DB601CC4B2032CFFF663AF0BB09B
:1024B000BDE8F08FC8280008C4280008000C0140BF
:1024C00024000020D01263419AB00020169017908B
:1024D000189030210AA8FDF72CFE0020059020203E
:1024E00000F0BCF80646012220213046FDF71AFE16
:1024F0004FF4E060FEF704FD00F0C3F9FFF74EF87B
:1025000001212248FEF79AFF01212148FEF796FF9C
:10251000FEF724FEFEF78CFB18B11EA0FFF75AF859
:1025200002E022A0FFF756F8FEF788FC2DE016A87F
:1025300000F0CAF80AA8FFF709FF05AB06AA0AA926
:1025400016A8FFF795FD1FA01699FFF743F823A0E3
:102550001799FFF73FF827A01899FFF73BF8DDE937
:102560000801CDE902019DF8150000909DF81410B6
:10257000DDE90643224625A0FFF72CF82BA0FFF744
:1025800029F84FF4FA5000F06FF9D0E70038014015
:10259000004400400D0A636F6E6E6574206E7266B3
:1025A000207375636365730D0A0000000D0A636F85
:1025B0006E6E6574206E7266206572726F720D0A9F
:1025C000000000000D0AB4D3BBFA31B5C4BEE0C0B0
:1025D000EBA3BA256420C3D70D0A00000D0AB4D3BB
:1025E000BBFA32B5C4BEE0C0EBA3BA256420C3D7A2
:1025F0000D0A00000D0AB4D3BBFA33B5C4BEE0C067
:10260000EBA3BA256420C3D70D0A00000D0AD6F744
:10261000BBFAB5C4475053A3BA2563202566202CC6
:102620002025632025660D0A000000000D0A2A2AD5
:102630002A2A2A2A2A2A2A2A2A2A2A2A2A2A2A2AFA
:102640002A454E442A2A2A2A2A2A2A2A2A2A2A2A91
:102650002A2A2A2A2A2A2A2A2A0D0A00F0B50B3009
:10266000154D20F007010024144A0FE003688B4247
:102670000BD38B4205D95E1A43184768C3E900673C
:1026800000E04368136002C004E0021D10680028E7
:10269000ECD12046002802D1286808B10020F0BD06
:1026A000064A07481060074A121A22F00702C0E9DA
:1026B000002401202860D7E7300000202C000020F3
:1026C0003C000020380200202DE9F04F91B0054673
:1026D0000026B1465A480D9000200A900B900C90AD
:1026E0001A212020FEF75AFB0024A3E05548015D83
:1026F0002520FEF753FB01215348FEF790FA63E0D3
:102700002AE008220EA9A020FEF778FB00214FF056
:102710008040FEF73EFE01204B49103108608007E3
:10272000008840F0010089060880012000F09CF834
:1027300001214548FEF773FA0720FEF719FB06460C
:1027400031462720FEF72AFBFF21E120FEF726FB7A
:1027500006F0200000B100E0D3E700BF4FF080405A
:10276000FEF7FAFD0190FDF780FE0746374A384B29
:10277000FDF791FD82468B4636490968364A01FBD2
:1027800002F0FDF772FE52465B46CDE90201FDF70D
:10279000DBFCCDE906010AA951F82400FDF765FE2E
:1027A000CDE90401DDE90623FDF7CEFCCDE9080102
:1027B000FDF768FE0AA941F82400002025490860B9
:1027C00009F1010000F0FF09B9F1FA0F98DB4FF0B1
:1027D00000090AA850F82400FA21B0FBF1F00AA978
:1027E00041F824000AAA52F824300D9A981A0028B9
:1027F00001DB024600E04242114602EBD172521068
:102800000AAB43F824200AA951F82400FDF72DFE55
:10281000124A134BCDE90801FDF73DFD07460022A2
:10282000104BFDF7AAFD8246FDF72CFE45F824006B
:10283000601CC4B2032CFFF659AF11B0BDE8F08F95
:1028400061AD0500C4280008000C0140E31EC771FB
:102850001CC72B4014000020A0BB0D00D9CBD7E132
:10286000BFFB074000002440002107E0002200E0F9
:10287000521C41F288339A42FADB491C8142F5DB53
:1028800070470EB501210846FEF746FBFEF74EFDE8
:102890000020ADF80600ADF80200ADF800004FF6DC
:1028A0002050ADF8040069464006FEF775FD012191
:1028B0008807FEF74BFD012211469007FEF760FDE9
:1028C0000EBD00001E46640067707300000000002B
:1028D0000000803F0030983F0000B53F0040D73FE8
:1028E00000000000320A7E397F661E395B991F396D
:1028F0000000803FF037983FF304B53FFD44D73FD9
:1029000020290008000000203800000034160008CC
:10291000582900083800002000060000441600086E
:102920000000000001020304010203040607080975
:102930000204060800000000000001020304050173
:102940000203040500000000000000000000000079
:0829500000000000000000007F
:04000005080000ED02
:00000001FF
